:020000040800F2
:100000003092002081020008B17700087554000882
:10001000795B000851110008D5B10008000000000C
:10002000000000000000000000000000A17A0008AD
:10003000051500080000000011790008AD820008D5
:100040009B0200089B0200089B0200089B0200081C
:100050009B0200089B020008091500089B0200088B
:100060009B0200089B0200089B020008B1140008D4
:10007000BD1400089B020008C91400089B02000878
:100080009B020008D51400089B0200089B02000890
:1000900055110008611100089B0200089B0200082E
:1000A0009B0200089B0200089B0200089B020008BC
:1000B0009B0200089B0200089B0200089B020008AC
:1000C0009B0200089B0200089B0200089B0200089C
:1000D0009B020008C18900089B020008E58900080E
:1000E000111500089B0200089B0200089B020008F3
:1000F0009B0200089B0200089B0200089B0200086C
:100100009B0200089B0200089B0200089B0200085B
:100110009B0200089B0200089B0200088D830008D8
:100120009B020008E1140008ED1400089B0200087F
:100130009B0200089B0200089B0200089B0200082B
:100140006D110008791100089B020008CD780008A5
:100150009B020008F91400089B020008698A000845
:100160009B0200089B0200089B0200089B020008FB
:100170009B0200089B0200089B0200080000000090
:100180009B0200089B0200089B02000815850008DE
:100190009B0200089B0200089B0200089B020008CB
:1001A00000000000000000009B02000800F002F8C0
:1001B00000F057F814A696E8000CB244B344DA45B0
:1001C00001D100F04EF8BAE80F000FA696E8300013
:1001D000A5EB040504EB0607AAEB0704A7F101074A
:1001E0004FEA15154FEA3414A4F10104AC4201D3CF
:1001F00000F037F813F0010F18BFFB1A43F00103AA
:1002000000F001F8DBE7184734F1000054F100007A
:10021000103A24BF78C878C1FAD8520724BF30C832
:1002200030C144BF04680C60704700007047000094
:100230000023002400250026103A28BF78C1FBD8EF
:10024000520728BF30C148BF0B607047782900F0C3
:10025000D780002070471FB50EF012FE1FBD10B5ED
:1002600010BD00F01AFA1146FFF7F5FF0BF0C0FCC5
:1002700000F038FA03B4FFF7F2FF03BC00F042FAD3
:100280000948804709480047FEE7FEE7FEE7FEE72A
:10029000FEE7FEE7FEE7FEE7FEE7FEE70448054966
:1002A000054A064B7047000079830008AD0100083D
:1002B000308C002030920020308E0020308E0020C4
:1002C00053EA020C00F069802DE9F04B4FF0000674
:1002D000002B1FBFB3FA83F503FA05F424FA05F6E1
:1002E0005E4012BF1643B2FA82F502FA05F4C5F178
:1002F00020051EBF22FA05FC44EA0C04203556EA0C
:10030000044C4FEA144418BF641C4FF000084FF02F
:100310000009904271EB030C39D3002919BFB1FADF
:1003200081F701FA07F6B0FA80F700FA07F6C7F18D
:1003300020071EBF20FA07FC46EA0C062037B6FB52
:10034000F4FCA7EB0507103F07F01F0BCBF12006CD
:100350002CFA06F60CFA0BFB44BFB3460026202FFE
:10036000A4BF5E464FF0000B5BEA060C08BF4FF0DF
:10037000010B19EB0B0948EB0608ABFB027C06FBF3
:1003800002CC0BFB03CCC01B71EB0C01C1E70B468D
:10039000024641464846BDE8F08B13B5084318BFF6
:1003A0004FF0FF300146AFF30080BDE81C407047BE
:1003B00070B5044685690068C10601D5302600E0A5
:1003C0002026C00707D070BDD4E9012130469047F0
:1003D000206A401C20626D1EF6D570BD70B50446C3
:1003E00085690078C00707D170BDD4E901212020BC
:1003F0009047206A401C20626D1EF6D570BD00003B
:1004000070B504460D4621461068AFF30080218880
:10041000090502D50F4A7A4402E00E4A7A440E32A8
:10042000002104F1240305E000F00F060009965DA9
:100430005E54491C0028F7D120780023000704D51A
:10044000702D02D009B1022311322046BDE8704060
:1004500000F098B880EA000010B5431C02E010F8E4
:10046000011B71B18107FAD14FF0013202C88C1A19
:100470008C4314EAC211F9D0C01A0A0603D0C01E78
:1004800010BDC01A10BD0A0401D0801E10BD0902A3
:10049000FCD0401E10BD032A40F2308010F0030C47
:1004A00000F0158011F8013BBCF1020F624498BFC7
:1004B00011F801CB00F8013B38BF11F8013BA2F164
:1004C000040298BF00F801CB38BF00F8013B11F0DF
:1004D000030300F0B080083AC0F0088051F8043BF4
:1004E000083A51F804CBA0E80810F5E7121D5CBFEC
:1004F00051F8043B40F8043BAFF30080D20724BF1F
:1005000011F8013B11F801CB48BF11F8012B24BFB2
:1005100000F8013B00F801CB48BF00F8012B704701
:1005200002F0FF0343EA032242EA024200F002B86B
:100530004FF0000200B5134694469646203922BF7C
:10054000A0E80C50A0E80C50B1F12001BFF4F7AFC7
:10055000090728BFA0E80C5048BF0CC05DF804EBA9
:10056000890028BF40F8042B08BF704748BF20F817
:10057000022B11F0804F18BF00F8012B7047704715
:10058000704770472DE9F0470D469946924604465C
:1005900000F124080168880604D5E06921F0100103
:1005A000216000E00120A84201DD471B00E0002798
:1005B000A1697A1902EB0900081AA0612078C00627
:1005C00002D42046FFF7F4FE002608E0D4E901211A
:1005D0001AF806009047206A401C761C20624E459F
:1005E000F4DB2078C0060AD52046FFF7E1FE06E0DE
:1005F000D4E9012130209047206A401C2062381E37
:10060000A7F10107F4DC07E0D4E9012118F805009F
:100610009047206A401C2062281EA5F10105F3DCEA
:100620002046FFF7DBFE2078000602D50220BDE859
:10063000F0870120FBE710B5203AC0F00B80B1E84D
:100640001850A0E81850B1E81850A0E81850203A07
:10065000BFF4F5AF5FEA027C24BFB1E81850A0E810
:10066000185044BF18C918C0BDE810405FEA827C2A
:1006700024BF51F8043B40F8043B08BF7047D20741
:1006800028BF31F8023B48BF11F8012B28BF20F8E2
:10069000023B48BF00F8012B7047754600F02CF86C
:1006A000AE4605006946534620F00700854618B05F
:1006B00020B5FFF7F3FDBDE820404FF000064FF0F6
:1006C00000074FF000084FF0000BAC46ACE8C00943
:1006D000ACE8C009ACE8C009ACE8C00921F00701EA
:1006E0008D46704710B50446AFF300802046BDE844
:1006F0001040FFF7BFBD00000048704750010020C8
:100700007047000001491820ABBEFEE7260002003A
:1007100080B505F0F7F900BF01200BF099FAFBE76F
:10072000B0B540F28434C2F20004E0684BF2DF114D
:10073000CFF6FF71884201DD013106E047F2D0318A
:10074000CFF6EE714A1C904201D20846E16094ED6A
:10075000051A40F2C43500EE100AC2F20005B8EEE8
:10076000C00AF8EEC10A05F108000BF027FB95ED71
:100770000E0ABDEEC00A10EE100A01B2A080B4F954
:10078000000043F64C5400EE101A01EE100AC2F2BB
:100790000004B8EEC00AF8EEC10A20460BF00EFBCA
:1007A00094ED0C0A4EF2C001BDEEC00A10EE100A24
:1007B000B0F5FA5FCFF6FF71A8BF4FF4FA5010F50D
:1007C000FA5FC8BF01466980B0BD00002DE9F04363
:1007D00081B02DED028B0AF085FE40F2DC500BF06B
:1007E00037FA44F26E3440F63D20C2F20004CCF2F7
:1007F000AF00C4F801000020C4F8050048F21F5003
:10080000CCF22220C4F809000020CCF22C30C4F82D
:100810000D004EF2481040F2000840F2383540F228
:100820002846C4F20920CCF22018C2F20005B1EE2D
:10083000048AC2F20006C4F81100C4F8158005E06D
:1008400001200BF005FAF07B002845D1D4F8050013
:10085000D5F8051000EE100A01EE101A30EE410A2C
:10086000B0EEC00AB4EE480AF1EE10FAE8DCD4F8B3
:100870000100D5F8011000EE100A01EE101A30EE5A
:10088000410AB0EEC00AB4EE480AF1EE10FAD7DC25
:10089000D4F80900D5F8091000EE100A01EE101A7C
:1008A00030EE410AB0EEC00AB4EE480AF1EE10FA9A
:1008B000C6DCD4F80D00D5F80D1000EE100A01EEDC
:1008C000101A30EE410AB0EEC00AB4EE480AF1EE5A
:1008D00010FAB5DC02E000BF0020F07340F284376C
:1008E00045F63060C2F20007CFF6EF704CF2513996
:1008F000F86000BFF8687969401A48BF404248452F
:1009000007D301200BF0A4F9F07B0028F2D00020DF
:10091000F0730AF0FFFD0020CCF27220C4F8010051
:100920000020C4F805004CF28F20CCF22F20C4F830
:1009300009000020CCF2B020C4F80D000020C4F261
:10094000B420C4F8110005E001200BF081F9F07B20
:10095000002845D1D4F80100D5F8011000EE100AA6
:1009600001EE101A30EE410AB0EEC00AB4EE480AA9
:10097000F1EE10FAE8DCD4F80500D5F8051000EE29
:10098000100A01EE101A30EE410AB0EEC00AB4EEC1
:10099000480AF1EE10FAD7DCD4F80900D5F80910AE
:1009A00000EE100A01EE101A30EE410AB0EEC00A55
:1009B000B4EE480AF1EE10FAC6DCD4F80D00D5F812
:1009C0000D1000EE100A01EE101A30EE410AB0EEE2
:1009D000C00AB4EE480AF1EE10FAB5DC02E000BF3E
:1009E0000020F073F8684CF2513900F5902000F5C2
:1009F0009F50F860F8687969411A48BF49424945F3
:100A000008D301200BF024F9F07B0028F2D0F8681D
:100A10000021F173A0F59020A0F59F504CF25139C0
:100A2000F86000BFF8687969401A48BF40424845FD
:100A300007D301200BF00CF9F07B0028F2D0002046
:100A4000F0730020C4F80100C4F80500C4F80900E0
:100A50000020CCF2B420C4F80D000020C4F28C2099
:100A6000C4F8110006E000BF01200BF0F1F8F07BA4
:100A7000002845D1D4F80100D5F8011000EE100A85
:100A800001EE101A30EE410AB0EEC00AB4EE480A88
:100A9000F1EE10FAE8DCD4F80500D5F8051000EE08
:100AA000100A01EE101A30EE410AB0EEC00AB4EEA0
:100AB000480AF1EE10FAD7DCD4F80900D5F809108D
:100AC00000EE100A01EE101A30EE410AB0EEC00A34
:100AD000B4EE480AF1EE10FAC6DCD4F80D00D5F8F1
:100AE0000D1000EE100A01EE101A30EE410AB0EEC1
:100AF000C00AB4EE480AF1EE10FAB5DC02E000BF1D
:100B00000020F073C4F80580D4F80500D5F805106E
:100B100000EE100A01EE101A30EE410AB0EEC00AE3
:100B2000B4EE480AF1EE10FA07DD01200BF090F860
:100B3000F07B0028E8D00020F073BDEC028B01B000
:100B4000BDE8F0832DE9F04381B02DED048B44F234
:100B50006E3440F2383540F22846C2F200040020DC
:100B6000C2F20005B1EE048AC2F20006C4F8010028
:100B7000C4F81500D4F80100D5F8011000EE100AF1
:100B800001EE101A30EE410AB0EEC00AB4EE480A87
:100B9000F1EE10FA07DD01200BF05AF8F07B002887
:100BA000E8D00020F07340F2843747F66010C2F2BC
:100BB0000007CFF6FE704CF25138F860F86879699A
:100BC000401A48BF4042404507D301200BF040F88F
:100BD000F07B0028F2D00020F0730020C4F805005C
:100BE0000020CCF24020C4F809000020CCF2F02014
:100BF00040F20008C4F80D000020CCF22018C4F226
:100C0000D810C4F80180C4F811000AF083FCB2EED9
:100C1000049A05E001200BF01BF8F07B002845D179
:100C2000D4F80100D5F8011000EE100A01EE101AF8
:100C300030EE410AB0EEC00AB4EE490AF1EE10FA05
:100C4000E8DCD4F80500D5F8051000EE100A01EE36
:100C5000101A30EE410AB0EEC00AB4EE490AF1EEC5
:100C600010FAD7DCD4F80900D5F8091000EE100A04
:100C700001EE101A30EE410AB0EEC00AB4EE490A95
:100C8000F1EE10FAC6DCD4F80D00D5F80D1000EE28
:100C9000100A01EE101A30EE410AB0EEC00AB4EEAE
:100CA000490AF1EE10FAB5DC02E000BF0020F07353
:100CB00040F20009CCF2C019C4F80590D4F8050040
:100CC000D5F8051000EE100A01EE101A30EE410AB8
:100CD000B0EEC00AB4EE490AF1EE10FA07DD0120C9
:100CE0000AF0B6FFF07B0028E8D00020F073C4F8CB
:100CF000019000BFD4F80100D5F8011000EE100AF1
:100D000001EE101A30EE410AB0EEC00AB4EE480A05
:100D1000F1EE10FA07DD01200AF09AFFF07B0028BF
:100D2000E8D00020F0734FF4FA700AF091FFF868F1
:100D30004CF25139A0F5F420A0F59070F86000BF96
:100D4000F8687969411A48BF4942494508D30120EA
:100D50000AF07EFFF07B0028F2D0F8680021F173E2
:100D6000A0F5DA20A0F55D60C4F805804CF250389B
:100D7000F86004E001200AF06BFFF07B50BBF868DC
:100D80007969401A48BF40424045F3D8D4F805007D
:100D9000D5F8051000EE100A01EE101A30EE410AE7
:100DA000B0EEC00AB4EE480AF1EE10FAE2DCD4F874
:100DB0000D00D5F80D1000EE100A01EE101A30EEFD
:100DC000410AB0EEC00AB4EE480AF1EE10FAD1DCE6
:100DD00002E000BF0020F0730020C4F80100C4F856
:100DE00009004FF496700AF033FF0020CCF2B420D3
:100DF000C4F80D000020C4F28C20C4F81100D4F80F
:100E000015009FED1F0A01EE100A31EE000A10EEE8
:100E1000100AC4F8150004E001200AF019FFF07B65
:100E200030BBD4F80100D5F8011000EE100A01EE35
:100E3000101A30EE410AB0EEC00AB4EE480AF1EEE4
:100E400010FAE9DCD4F80900D5F8091000EE100A10
:100E500001EE101A30EE410AB0EEC00AB4EE480AB4
:100E6000F1EE10FAD8DCBDEC048B01B0BDE8F083E4
:100E70000020F073BDEC048B01B0BDE8F08300BF2F
:100E8000000070C22DE9F0472DED048B44F26E3462
:100E900040F2383540F22846C2F200040020C2F287
:100EA0000005B1EE048AC2F20006C4F80100C4F8DD
:100EB000150000BFD4F80100D5F8011000EE100AAB
:100EC00001EE101A30EE410AB0EEC00AB4EE480A44
:100ED000F1EE10FA07DD01200AF0BAFEF07B0028DF
:100EE000E8D00020F07340F2843A47F66010C2F276
:100EF000000ACFF6FE70CAF80C000020C4F8050006
:100F00000020CCF24020C4F809000020CCF2F020F0
:100F100040F20008C4F80D000020CCF22018C4F202
:100F2000D810B2EE049AC4F80180C4F8110005E0AC
:100F300001200AF08DFEF07B002845D1D4F8010095
:100F4000D5F8011000EE100A01EE101A30EE410A39
:100F5000B0EEC00AB4EE490AF1EE10FAE8DCD4F8BB
:100F60000500D5F8051000EE100A01EE101A30EE5B
:100F7000410AB0EEC00AB4EE490AF1EE10FAD7DC2D
:100F8000D4F80900D5F8091000EE100A01EE101A85
:100F900030EE410AB0EEC00AB4EE490AF1EE10FAA2
:100FA000C6DCD4F80D00D5F80D1000EE100A01EEE5
:100FB000101A30EE410AB0EEC00AB4EE490AF1EE62
:100FC00010FAB5DC02E000BF0020F0734CF251379C
:100FD000DAF80C00DAF81410401A48BF4042B84260
:100FE00007D301200AF034FEF07B0028F0D0002067
:100FF000F0730AF08FFA40F20009CCF2C019C4F87D
:10100000059000BFD4F80500D5F8051000EE100AD1
:1010100001EE101A30EE410AB0EEC00AB4EE490AF1
:10102000F1EE10FA07DD01200AF012FEF07B002835
:10103000E8D00020F073C4F8019000BFD4F801009C
:10104000D5F8011000EE100A01EE101A30EE410A38
:10105000B0EEC00AB4EE480AF1EE10FA07DD012046
:101060000AF0F6FDF07B0028E8D00020F0734FF482
:10107000FA700AF0EDFDDAF80C00A0F5F420A0F506
:101080009070CAF80C004FF496700AF0E1FDDAF89F
:101090000C00C4F80580A0F5DA20A0F55D60CAF860
:1010A0000C004FF4FA700AF0D3FD0020C4F80100E0
:1010B000C4F809004FF496700AF0CAFD0020D4F875
:1010C0001510CCF2B420C4F80D00002000EE101A68
:1010D000B3EE0E1AC4F28C2030EE010AC4F81100EF
:1010E00010EE100AC4F8150005E000BF01200AF058
:1010F000AFFDF07B30BBD4F80100D5F8011000EE55
:10110000100A01EE101A30EE410AB0EEC00AB4EE39
:10111000480AF1EE10FAE9DCD4F80900D5F8091014
:1011200000EE100A01EE101A30EE410AB0EEC00ACD
:10113000B4EE480AF1EE10FAD8DCBDEC048BBDE841
:10114000F08700BF0020F073BDEC048BBDE8F08792
:10115000FEE7000042F20800C2F2000000F07ABD93
:1011600042F20800C2F2000000F074BD42F230000A
:10117000C2F2000000F06EBD42F23000C2F2000088
:1011800000F068BD002070470020704710B541F6A0
:101190002C54C2F2000441F2F831C2F200012046A0
:1011A000002207F05FFE40F6F831C2F2000120464F
:1011B00007F04AFE002010BD70B541F62C5548F2EC
:1011C0003016C2F20005C2F200060C46284631462F
:1011D00007F03AFE284607F011FE2068A6F8000244
:1011E000012086F8020206F0E5FA002070BD00003A
:1011F00000207047B0B540F28435C2F20005E86ABD
:1012000041F67F21C0F20601884201DD013103E091
:1012100042F21071884201DC0846E96295ED0D1A30
:1012200041F6F83400EE100AC2F20004B8EE400AAB
:10123000F8EEC10A20460AF0C1FD94ED0C0A41F611
:10124000B044BDEEC00A10EE100A01B2A884B5F990
:10125000200000EE101A01EE100AC2F20004B8EEEF
:10126000C00AF8EEC10A20460AF0A8FD94ED0C0A67
:101270004EF2C001BDEEC00A10EE100AB0F5FA5FE2
:10128000A8BF4FF4FA50CFF6FF7110F5FA5FC8BF50
:10129000014640F2C430C2F200008180B0BD0000BF
:1012A00010B540F21030C2F20000D0F8012044F234
:1012B0006E31C2F20001D0F80530C1F80120D0F83B
:1012C0000920C1F80530D0F80D30C1F809200278A6
:1012D000C1F80D30D0F81130022AC1F8113005D014
:1012E000012A0ED14FF47A6204E000BF4FF260028F
:1012F000CFF6FF7240F28433C2F20003DC6822446E
:10130000DA60427D012A05D0022A0FD1BFEE000A21
:1013100002E000BFB7EE000AD1F8152001EE102A56
:1013200031EE000A10EE102AC1F8152040F24F34B9
:10133000817DC2F20004E079012908BF02280BD0A8
:10134000012908BF012807D0002908BF012809D0BA
:101350000120E07110BD00BF0AF0DCF80120E0714F
:1013600010BD00BF0AF0BEF80120E07110BD000002
:101370002DE9F04340F23A514379C2F200010F7A6D
:101380009A09974218BF8F724F7AC3F30113BB4279
:1013900018BFCF720A724B7207784278857862F371
:1013A0000A27A7F58069A1F8009042780479D60849
:1013B00065F34A16A6F58068A1F80280C5788278A0
:1013C000AD0045EA921564F38A25A5F5806EA1F873
:1013D00004E002794379540863F3CA14A4F5806CDD
:1013E000A1F806C0C2888A810289CA8142890A821C
:1013F000027B0A75427B4A75C089A7F2FA320C2A31
:10140000C882A6F2FA309CBF4FF00009A1F8009004
:101410000C28A5F2FA309CBF4FF00008A1F802801A
:101420000C28A4F2FA309CBF4FF0000EA1F804E0A3
:101430000C2840F28A244FF676509CBF4FF0000CE7
:10144000A1F806C0A145CFF6FF701BDD0C8040F26D
:101450008A2398451EDC80450346B8BF4B8040F286
:101460008A2296451BDC86450246B8BF8A8040F238
:101470008A22944518DC84450246B8BFCA80BDE87C
:10148000F08300BF81450446B8BF0C8040F28A2338
:101490009845E0DD4B8040F28A229645E3DD8A8064
:1014A00040F28A229445E6DDCA80BDE8F083000060
:1014B00042F2B800C2F2000000F0BEBE42F2781064
:1014C000C2F2000000F0B8BE42F2D810C2F2000032
:1014D00000F0B2BE42F25800C2F2000000F0ACBE12
:1014E00042F23820C2F2000000F0A6BE42F218100C
:1014F000C2F2000000F0A0BE42F29820C2F200004A
:1015000000F09ABE70470000012001F013B90000FE
:101510004FF4805001F00EB972B600BFFEE7000034
:10152000F0B581B02DED028B40F2843448F6506066
:10153000C2F20004CFF6F470E06044F26E36002090
:1015400040F22845C2F20006C4F2B4204CF25137F2
:10155000C2F20005C6F81100E0686169401A48BF90
:101560004042B84207D301200AF072FBE87B002812
:10157000F2D00020E873D6F815009FED5B0A01EE6B
:10158000100A31EE000A10EE100AC6F8150000200D
:10159000CCF27020C6F8010044F2AE70CBF6E160E8
:1015A000C6F805000020CCF22020C6F80900002073
:1015B000CCF2B420C6F80D004CF2AE7040F23837D1
:1015C000C4F2B120C2F20007B1EE048AC6F81100DD
:1015D00006E000BF01200AF03BFBE87B002845D174
:1015E000D6F80500D7F8051000EE100A01EE101A23
:1015F00030EE410AB0EEC00AB4EE480AF1EE10FA3D
:10160000E8DCD6F80100D7F8011000EE100A01EE70
:10161000101A30EE410AB0EEC00AB4EE480AF1EEFC
:1016200010FAD7DCD6F80900D7F8091000EE100A36
:1016300001EE101A30EE410AB0EEC00AB4EE480ACC
:10164000F1EE10FAC6DCD6F80D00D7F80D1000EE5A
:10165000100A01EE101A30EE410AB0EEC00AB4EEE4
:10166000480AF1EE10FAB5DC02E000BF0020E87392
:1016700049F69030CFF6F7704CF25136E06000BF7B
:10168000E0686169401A48BF4042B04207D3012078
:101690000AF0DEFAE87B0028F2D00020E87364202C
:1016A0000AF0D6FA09F01EFF4FF47A700AF0D0FA69
:1016B000E0684CF25136A0F574309038E06000BF1D
:1016C000E0686169401A48BF4042B04207D3012038
:1016D0000AF0BEFAE87B0028F2D00020E873BDECE7
:1016E000028B01B0F0BD00BF0000B442F0B581B084
:1016F0002DED028B09F00EFF40F284344FF2C02032
:1017000040F22845C2F20004CFF6FC704CF251368C
:10171000C2F20005E06000BFE0686169401A48BF9E
:101720004042B04207D301200AF092FAE87B002839
:10173000F2D00020E87348F21010CFF6F1704CF2AE
:101740005136E060E0686169401A48BF4042B042EB
:1017500007D301200AF07CFAE87B0028F2D00020B1
:10176000E87344F26E3640F23837C2F200060020C9
:10177000C2F20007B1EE048AC6F80500D6F80500EB
:10178000D7F8051000EE100A01EE101A30EE410AEB
:10179000B0EEC00AB4EE480AF1EE10FA07DD0120FF
:1017A0000AF056FAE87B0028E8D00020E873002011
:1017B000CCF27020C6F8010044F2AE70CBF6E160C6
:1017C000C6F805000020CCF22020C6F80900002051
:1017D000D6F81510CCF2B420C6F80D004CF2AE705D
:1017E00000EE101AB3EE071AC4F2B12030EE010A6F
:1017F000C6F8110010EE100AC6F8150006E000BF8A
:1018000001200AF025FAE87B002845D1D6F805002A
:10181000D7F8051000EE100A01EE101A30EE410A5A
:10182000B0EEC00AB4EE480AF1EE10FAE8DCD6F8E1
:101830000100D7F8011000EE100A01EE101A30EE88
:10184000410AB0EEC00AB4EE480AF1EE10FAD7DC55
:10185000D6F80900D7F8091000EE100A01EE101AA8
:1018600030EE410AB0EEC00AB4EE480AF1EE10FACA
:10187000C6DCD6F80D00D7F80D1000EE100A01EE08
:10188000101A30EE410AB0EEC00AB4EE480AF1EE8A
:1018900010FAB5DC02E000BF0020E8734DF640000E
:1018A000CFF6F6704CF25136E06000BFE068616937
:1018B000401A48BF4042B04207D301200AF0C8F99D
:1018C000E87B0028F2D00020E87364200AF0C0F919
:1018D00009F008FE4FF47A700AF0BAF9E0684CF2A9
:1018E0005136A0F574309038E06000BFE06861695F
:1018F000401A48BF4042B04207D301200AF0A8F97D
:10190000E87B0028F2D00020E873BDEC028B01B028
:10191000F0BD00002422C4F20002D2F800C04368E7
:10192000C0F800C05A429C4538BFDA43624400EE1A
:10193000102AB8EE400A29B1012909D19FED0A1AEF
:1019400002E000BF9FED071A80EE011A80ED031A36
:1019500090ED021AC0F804C031EE000A80ED020AD0
:10196000704700BF0024744900007A4490F820209A
:10197000013A012A08D8006800F114020020136817
:1019800019431160704700BF00F1240201204FF499
:1019900080211368194311607047000010B590F85A
:1019A00020E0D0F800C0AEF1010EBEF1010FDCF86E
:1019B00008E011D81EF0E05F18D0CEF301640120DA
:1019C000A04018608B68DBB1D1F804E0C86840EA39
:1019D000CE0040EA030E17E000F1240301204FF48B
:1019E00080211A681143196010BD00BF00F1240363
:1019F00001204FF400111A681143196010BD00BF97
:101A00000868CB6843EA405E0CF5C07000EB041335
:101A1000240140F804E00C69184640F8044F097DA1
:101A2000012903D1016841F48071016050680121EE
:101A3000D8601068986000201A681143196010BDC2
:101A400090F82020013A012A30D8B0B546F2006063
:101A5000C4F20000026842F001020260026822F44F
:101A60007C520260D1F814E0CC694A6A0368012C08
:101A700043EA022202600EF01F024FF0010303FA54
:101A800002F2C3696FEA020C23EA0203C36113D0B6
:101A90002CBBC36803EA0C03C360CB688C8844EAA0
:101AA000034300EBCE0423640B4611E0416A41F48A
:101AB0008021416201207047C3681343C3600B68F3
:101AC0008C8844EA034300EBCE04236401F10C0349
:101AD0008C681B8843EA044300EBCE0463644368CC
:101AE0008D6943EA0204D1F810E0096A002D08BFAD
:101AF00003EA0C0444604369BEF1000F43EA0204A8
:101B000008BF03EA0C040129446102D1C1691143F1
:101B1000C161016821F0010101600020B0BD000039
:101B200070470000B0B590F82040013C012C7DD8F2
:101B3000D0F800C000290CBFDCF80C40DCF81040E5
:101B4000A4077DD00CF5D8754FEA011C55F80C4060
:101B500014F00404946055F80CE005EB011C19BF67
:101B60004FEADE0555604FEA5E551560DCF800501F
:101B7000E64605F00205D5605EF8044F24075ABF1B
:101B8000DEF8004004F00F0408241461DEF8004081
:101B90000029C4F307249461DEF800504FEA15458C
:101BA0005561DCF808201A70026802EB0112D2F8C5
:101BB000B8214FEA12225A70026802EB0112D2F8E1
:101BC000B8214FEA12429A70026802EB0112D2F871
:101BD000B8214FEA1262DA70026802EB0112D2F801
:101BE000BC211A71026802EB0112D2F8BC214FEA43
:101BF00012225A71026802EB0112D2F8BC214FEA9C
:101C000012429A71026802EB0112D2F8BC214FEA2B
:101C10001262DA7100680CBF00F10C0100F11001D2
:101C2000002020220B681A430A60B0BD00F1240195
:101C300001204FF480220B681A430A60B0BD00BF38
:101C400000F1240101204FF400120B681A430A60CE
:101C5000B0BD00002DE9F04F81B004460068466930
:101C6000D0F804908768D0F80CB0D0F810A0D0F865
:101C70001880F10704D1002530071DD424E000BFEF
:101C8000F90710D00121BA07816009D4780700F163
:101C9000AF80380700F1B680204600F065FA02E018
:101CA000204600F063FA0025F80500F18780F8036C
:101CB00000F1B180300707D51BF0100004D0206878
:101CC00045F400751021C160700708D51BF00800AD
:101CD00005D020680821C160204600F001FAB00755
:101CE00006D52068C068800702D0204600F0FAF9C7
:101CF000700607D51AF0100004D0206845F48065FE
:101D000010210161B00608D51AF0080005D020683E
:101D100008210161204600F0EDF9F00606D52068A3
:101D20000069800702D0204600F0E6F9B00308D52C
:101D300019F0100005D0206810214160204600F005
:101D4000E3F9F00308D519F0080005D02068082150
:101D50004160204600F014FA300440F19B805FEAB5
:101D6000497040F1948006F4807008EA10202843FE
:101D70005FEA8871014648BF41F00201B20558BFD1
:101D800001465FEA48700D4648BF45F004057005FE
:101D900058BF0D46300540F17A8018F0700000F011
:101DA00076801038000905286CD8DFE800F003655C
:101DB0005D61596945F0080564E000BF20684FF493
:101DC0008071BA0581600BD4780515D438051DD40F
:101DD000204600F0CDF9F8037FF56CAF1BE000BFA3
:101DE000204600F0C7F9F8037FF564AF13E000BFA9
:101DF0004FF4006558E700BF05F50055F8037FF57F
:101E000059AF08E04FF480554EE700BF05F5804517
:101E1000F8037FF54FAF20684FF48031BA0381603B
:101E20000AD4780310D4380314D4204600F0A4F95F
:101E300030073FF541AF47E7204600F09FF93007F4
:101E40003FF53AAF40E700BF05F5004530073FF5E5
:101E500033AF39E705F5803530073FF52DAF33E770
:101E600045F080050EE000BF45F020050AE000BF08
:101E700045F0400506E000BF45F0100502E000BF58
:101E800045F480752068816921F0700181612068C6
:101E90000421416055B1606A40EA05012046616253
:101EA00001B0BDE8F04FFFF73BBE00BF01B0BDE899
:101EB000F08F0000002804BF01207047B0B5044631
:101EC00090F8200010B9204600F06EF820680168F4
:101ED00041F00101016000F015FD054620684168F0
:101EE000C90705D100F00EFD401B0B28F6D310E00A
:101EF000016821F00201016000F004FD054600BF09
:101F00002068416889070DD500F0FCFC401B0B28B8
:101F1000F6D3606A052140F400306062012084F845
:101F20002010B0BD217E0268012922F0800208BF86
:101F300080320260617E0268012922F0400208BFFF
:101F400040320260A17E0268012922F0200208BF0F
:101F500020320260E17E0268012922F0100218BFDF
:101F600010320260217F0268012922F0080208BFB6
:101F700008320260617F0268012922F0040208BF72
:101F800004320260D4E901C2D4E9033561691A431D
:101F90002A431143ACF101021143C1610020012128
:101FA000606284F82010B0BDB0B586B0006846F617
:101FB0000002C4F2000200219042CDE90411CDE9F3
:101FC0000211019136D046F20041C4F2000188426C
:101FD00040F0838040F2E841C2F200010A6843F613
:101FE0004000C4F20200531C0B6052B90021009162
:101FF000016841F000710160016801F00071009119
:1020000000990021009150F8101C152441F008019E
:1020100040F8101C50F8100C142500F00800009037
:10202000009840F20040C4F2020000F50060032175
:1020300037E000BF43F64000C4F20200009101689F
:1020400041F080610160016801F0806100910099B8
:1020500040F2E841C2F200010A68531C0B6052B919
:1020600000210091016841F000710160016801F0F8
:102070000071009100990021009150F8101C41243A
:1020800041F0020140F8101C50F8100C402500F0FF
:1020900002000090009840F200404FF44051C4F21A
:1020A0000200019102210291002103910321049178
:1020B0000921059101A900F049FB284605210022CC
:1020C00000F0DEFC284600F0C9FC20460521002275
:1020D00000F0D6FC204600F0C1FC06B0B0BD000008
:1020E0007047000042F20800C2F20000002105F033
:1020F000E9BC00007047000042F23000C2F200006C
:10210000012105F0DFBC000070470000B0B50446B7
:1021100090F8200001281DD1022084F820002068BA
:10212000016821F00101016000F0ECFB054600BFF1
:1021300020684068C00713D000F0E4FB401B0B2868
:10214000F6D3606A40F400306062052084F8200015
:102150000120B0BD606A40F4002060620120B0BD83
:1021600000206062B0BD00007047000070470000B2
:102170007047000070470000704700007047000083
:102180007047000070B5866D044600F0BBFB94F804
:102190003510022928D105462068216C026822F0FA
:1021A00016020260426922F08002426109B9A16C04
:1021B00019B1016821F008010160016821F00101F5
:1021C000016000BF20680068C00715D000F09AFBCE
:1021D000401B0628F6D320206065032084F83500D4
:1021E000002184F8341070BD80206065012000213A
:1021F00084F8341070BD00BFE06D3F2101FA00F09B
:10220000B060012084F835000020002184F83410EB
:1022100070BD000090F83510022909D1052180F821
:1022200035100068016821F001010160002070474D
:102230008021416501207047F0B581B000210091F7
:1022400040F25001C2F200010B68D0E9166148F279
:10225000B51537680822C1F64E358A403A42A3FBCD
:1022600005350CD003681C68640708D51C6824F089
:1022700004041C60B260426D42F00102426501221A
:102280008A403A4208D003685B691B0604D5B260F5
:10229000426D42F00202426504228A403A4208D06E
:1022A00003681B689B0704D5B260426D42F00402CC
:1022B000426510228A403A4219D001680B681B0718
:1022C00015D5B2600B680A685B0309D4D20509D43E
:1022D0000A6822F008020A60016C29B907E000BF11
:1022E000110341D4016C11B1044688472046C26DE8
:1022F000202101FA02F33B4243D001680F68FF0638
:102300003FD5B36090F835700B68052F1CD123F0D2
:1023100016030B604B6923F080034B61036C0BB910
:10232000836C1BB10B6823F008030B603F219140C5
:10233000B160012180F83510016D0022002980F87C
:10234000342054D158E000BF0A685B0310D4D20592
:1023500012D40A6822F010020A60012180F83510B8
:10236000002180F8341007E0816C0029BCD1BEE761
:10237000110301D4416C00E0C16B11B104468847E0
:102380002046416DC1B3416DC9072ED0052180F8AB
:1023900035100168AA0A0B6823F001030B60009B4B
:1023A0000133934200931AD80B68DB0717D0009BC8
:1023B00001339342009312D80B68DB070FD0009BC8
:1023C0000133934200930AD80B68DB0707D0009BC8
:1023D00001339342009302D80B68DB07DFD1012160
:1023E00080F83510002180F83410C16C21B101B0A3
:1023F000BDE8F040084700BF01B0F0BD2DE9F04155
:10240000044600F07FFAECB10546022084F835005E
:102410000020216884F83400086820F0010008607A
:1024200021680868C00711D000F06CFA401B05282D
:10243000F6D9032520230320636584F83550BDE8D1
:10244000F08100BF0120BDE8F08100BF086848F2BC
:102450003F02CFF21002D4E9013500EA020C04F188
:102460000C0898E8C10143EA0C032B431843D4E954
:10247000072E304338431043626A40EA0E00042AB4
:1024800040EA08031CD1206BD4E90A2E40EA0E0072
:10249000184308604869BEF1000F20F0030040EACD
:1024A000020040F0040C11D0B8F5005F36D0B8F14E
:1024B000000F45D1022A46D0012A3BD032B942E072
:1024C0000B60486920F0070040EA020C01F0F800B8
:1024D0004AF6AB221038CAF6AA22A0FB02231A0938
:1024E0004FF2FC03C1F814C0C0F600039A5C40F23E
:1024F000FF335F284FF03F0021EA030100FA02F0AA
:1025000088BF0431C4E91612886000230125002029
:10251000636584F83550BDE8F08100BF032AD5D843
:10252000012540230120DFE802F0030E030500BF70
:1025300082E700BFAEF1C070B0FA80F0400904E05D
:10254000032A04D3C2D1CEF300600028BED00125F7
:1025500040230120636584F83550BDE8F081000018
:1025600090F834C0BCF1010F31D04FF0010C80F86D
:1025700034C090F835C0BCF1010F25D110B54FF033
:10258000020C80F835C084460020CCF85400DCF8FA
:1025900000E0DCF808C0DEF80040BCF1400F24F495
:1025A0008024CEF80040CEF804300B4604BF13461A
:1025B0000A46CEF80830CEF80C20DEF8001041F0C4
:1025C0000101CEF8001010BD002180F83410022067
:1025D0007047000090F834C0BCF1010F04BF022026
:1025E000704770B54FF0010C80F834C0D0F858E057
:1025F00090F835C0BCF1010F38D14FF0020C80F8D3
:1026000035C04FF0000CC0F854C0D0F800C084684A
:10261000056CC06DDCF80060402C26F48026CCF8F8
:102620000060CCF804300B4604BF13460A463F2135
:1026300001FA00F0CCF80830CCF80C20CEF80800F5
:10264000DCF8000040F01600CCF800002DB1DCF8FA
:10265000000040F00800CCF80000DCF8000040F07A
:102660000100CCF80000002070BD00BF002180F800
:102670003410022070BD0000B0B5044600F042F9ED
:10268000054640F20000C2F200000078611C18BF4D
:10269000044400BF00F036F9401BA042FAD3B0BD9D
:1026A000B0B5B0F5805F15D001282AD141F60040C1
:1026B000C4F2020000F5806420460121012500F0EB
:1026C00015F9012818D140F2AC20C2F200000570C3
:1026D000B0BD00BF41F60044C4F2020420464FF4EE
:1026E000805100F003F901280CD140F2AC20C2F275
:1026F000000001214170B0BD2046012100F0F6F834
:1027000080B1B0BD20464FF4805100F0EFF80028B2
:1027100018BFB0BD40F2AC20C2F2000000214170F1
:10272000B0BD00BF40F2AC20C2F200000021017039
:10273000B0BD000043F61441C4F201010A68024230
:1027400014BF08607047FFF7ABBF00002DE9F04FE2
:1027500083B000F1200200F13E4742F200450092B2
:1027600007F1FF77C4F202050A224FEAB726A84212
:1027700008BF092200254FF000084FF00009092E7C
:1027800038BF4FEAB72201920AE000BF09F1010900
:1027900008F10208B9F1100F05F1040500F0A2805C
:1027A0000F68012202FA09FE17EA0E0AEED0D1F8EC
:1027B00004C003220CF003077E1E02FA08F4012E67
:1027C0006FEA040B12D88468CE6804EA0B0406FA98
:1027D00008F634438460446824EA0E06CCF30014FF
:1027E00004FA09F42643466004E000BF032F01D138
:1027F00003271EE0C6688C6806EA0B0604FA08F494
:102800002643022FC66014D16FF00302009E02EA35
:10281000590756F807C005F01C040F220B69A240A7
:102820002CEA0202A3401A43F251D1F804C00CF082
:102830000307026807FA08F302EA0B021A431CF4C2
:10284000403F0260A2D0002243F644030292C4F249
:1028500002031A6843F6004442F480421A601A6880
:10286000C4F2010402F480420292029A29F00302A7
:102870004FF6084C2244CFF6FF7C52F80C3005F09E
:102880000C070F26BE40B343019E06FA07F73B43F1
:1028900042F80C30A2684B6842EA0A0743F60C4C37
:1028A000DE0258BF22EA0A07A760C4F2010CDCF876
:1028B00000209E0242EA0A0758BF22EA0A07CCF823
:1028C000007062689E0342EA0A0758BF22EA0A07BC
:1028D00067602268DB0342EA0A0758BF22EA0A0758
:1028E000276053E703B0BDE8F08F0000006908409F
:1028F00018BF012070470000002A08BF0904816149
:102900007047000048F23450C2F20000006870477F
:1029100040F2000048F23451C2F20000C2F200015D
:1029200000780A68104408607047000080B543F6DC
:102930000040C4F20200016841F4007101600168C6
:1029400041F480610160016841F4807101600320FD
:1029500000F0C2F80F2000F005F800F05DF800204C
:1029600080BD000070B586B0002543F6400101959A
:10297000C4F202010A68044642F020020A600968B3
:1029800001A801F0200101910199694601F082F945
:10299000049E002E18BF012601F0A2F94DF68361B6
:1029A000B040C4F21B31A0FB01014FF0FF3000EB3F
:1029B000914142F66C0041F20042C2F20000C4F2C2
:1029C000000240F2E733C0E90021C0E9025305618B
:1029D000856101F01DFC08B106B070BD42F66C00C7
:1029E000C2F2000001F05AFC0028F5D1372000F0B7
:1029F00035F80F2C0CD837202146002200F040F883
:102A000040F204010020C2F200010C6006B070BD6B
:102A1000012006B070BD000082B0002043F64001E6
:102A20000190C4F202014A6842F480424A604A6856
:102A300002F480420192019A00900868002240F05E
:102A40008050086008680F2100F0805000900098C6
:102A50006FF0010002B000F013B80000002848BF7A
:102A6000704700F01F01012202FA01F11C2202EA64
:102A7000D0004EF20012CEF20002815070470000EA
:102A800010B54EF60C5CCEF2000CDCF80030C3F34F
:102A9000022E8EF00704042C28BF0424BEF1030389
:102AA0004FF0FF3E0EFA04F438BF0023A1439940D3
:102AB0000EFA03F39A43114300F00F0200F1604352
:102AC0000901043A03F564436244002848BF02F157
:102AD0000C03197010BD00004EF60C51CEF200012F
:102AE0000A684FF6FF031A4060F30A2242F0806042
:102AF00040F0FD70086070477047000002680020D9
:102B0000516270472DE9F041D0F80080D8F82430A8
:102B100091B1D8F82870B1F1010C03EB17414FD0F7
:102B20005FFA8CF708F58273042F0CF0030E0BD2BA
:102B3000002700242BE000BF43EA02410020C8F830
:102B40002810BDE8F08100BF0CF0FC0508F1F40688
:102B5000002400BF56F8107F44F0020001EB17413B
:102B600044F00107FFB253F82770C0B253F82000B9
:102B700001EB174101EB104044F00301C9B253F8D7
:102B800021100434E7B2AF4200EB1141E2D1BEF1B3
:102B9000000F15D053F82700BEF1010F01EB1041D3
:102BA0000ED0601CC0B253F82000BEF1020F01EB42
:102BB000104105D0A01CC0B253F8200001EB104119
:102BC00041EA024008EB8C01C1F804010020BDE895
:102BD000F0810000D0F8E00406F0C2BC01EBC102B5
:102BE000D0F8E03400EB8200026A184606F024BCFC
:102BF00001EBC102D0F8E03400EB8200D0F8602293
:102C0000184606F075BC0000D0F8E00406F0AABC37
:102C100010B54FFA81FC4FF4157201F00F0EBCF1A4
:102C2000000F48BF142290F8944402440EEBCE03E8
:102C30004FEAD11C02EB8301012C81F801C002F89C
:102C400023E004BF022010BD0268012380F8943401
:102C50000446104607F054FA002084F8940410BD8E
:102C6000B0B5037901F00F029A4284BF0120B0BDD4
:102C70004BB24FF41574002B48BF142400EB040E24
:102C800090F8944402EBC2034FEAD11C0EEB83018F
:102C9000012C4FF0000481F801C08C700EF8232045
:102CA00004BF0220B0BD0268012380F894340546B9
:102CB000104607F019FD204685F89444B0BD000089
:102CC00001F00F0101EBC10100EB8100D0F86802B7
:102CD0007047000010B54FFA81FE01F00F0CBEF1F5
:102CE000000F6FF3DF220CEBCC010DD400EB810E53
:102CF00000240EF515718EF855428EF854C2CEF8A8
:102D00005C228EF8583209E000EB810101F814CF03
:102D100001244C708A600B71A1F81AC0022B04BF09
:102D200000224A7190F89424012A04BF022010BDA9
:102D30000268012380F894340446104607F084F8B2
:102D4000002084F8940410BD10B501F00F0E0EEBB6
:102D5000CE0100EB81044FF0000CC4F868C284F887
:102D600055C290F806C004F51571C4F86022C4F885
:102D70006432BCF1010F84F854E208BFCA610068F4
:102D8000624607F0FBFC002010BD0000B0B50279E0
:102D900001F00F0494424FF001022CD84BB24FF4D3
:102DA0001575002B48BF14254FEAD11C48BF21469A
:102DB000054401EBC10305EB830181F801C090F8E4
:102DC00094C48A70BCF1010F05F8234004BF0220AF
:102DD000B0BD02680123054680F89434104607F020
:102DE000ADFC2CB92868A97905F29C4207F04EFC8D
:102DF000002285F894241046B0BD000001F00F0CAD
:102E00000CEBCC0100EB810101F814CF4FF0000C6A
:102E10000B618379C1F814C04FF0010CCA60012B1B
:102E200081F801C008BFCA6180B500681A4607F082
:102E3000A5FC002080BD00002DE9F04F87B005689B
:102E40008246284607F0B6FE10B107B0BDE8F08F05
:102E5000DAF8000007F0DCFE0028F6D0D5F8080804
:102E6000C0F30D21DAF80000CAF8D41407F0D0FE40
:102E70000146DAF80000890703D5416901F0020133
:102E8000416105F50061049107F0C2FE0146DAF8E0
:102E90000000C906059535D5816921F010018161D1
:102EA0002C6A04F00F0000EBC0000AEB8001C4F3B1
:102EB0004340062801F5157512D002281BD147F6AC
:102EC000F07014EA000616D0E96834090598224625
:102ED00007F0A2FEE86800EB1610E86008E000BF0B
:102EE00005980AF29C41082207F096FEC4F30A14E2
:102EF000686920446861DAF80000816941F01001D6
:102F00008161059D07F084FE000340F1F180DAF84D
:102F1000000007F05BFE002800F0EA8006460AF297
:102F20009C404FF4306800244FF0000B069019E0ED
:102F300005EB080002218160B80642BF05EB0800DE
:102F400020218160B80442BF05EB08004FF4005116
:102F500081600BF1010B760808F1200804F12404CC
:102F600000F0C680F007F4D0DAF800005FFA8BF9C1
:102F7000494607F045FE0746C00760D005EB08004C
:102F800001218160DAF8000008EB0001036C8A6817
:102F90009AF80650012D25D1150733D4950600F176
:102FA0009F8043F20B05C4F65475AB42059D02D3D6
:102FB00012F4004230D10AEB0402D2F874320969EB
:102FC0006FF3DF41A3EB0101C2F868129CBBD2F89A
:102FD0006432002B00F08A80D2F860020844C2F804
:102FE000600228E043F20B05C4F65475FF35AB428E
:102FF00018D1059D10040FD4900644BF202088608E
:1030000019E000BF43F20B00C4F65470059D8342E3
:1030100015D312F4004012D04FF4004088603807F6
:103020000FD43DE0059D34B9DAF8641219B90021D6
:10303000069A07F02BFB50464946FFF7D9FD3807A3
:103040002ED505EB080008218160DAF8000043F274
:103050000B02056C40448168C4F6547295420BD350
:1030600011F4004108D04FF400418160504600F057
:103070001DFD059D0AE000BF504600F017FD43F21C
:103080000B00C4F654708542059D09D39AF80600DA
:10309000012805D1DAF80000069A012107F0F6FAB6
:1030A000F80642BF05EB080010218160B8077FF5E4
:1030B00043AF6869000604D50499486840F480600D
:1030C00048600AEB040090F8571201297FF430AFF2
:1030D000002180F857125046494600F035FB27E79B
:1030E00020208860059D3807ABD4D9E701219FE7F0
:1030F000DAF80000CDF818A007F08AFD400340F18F
:10310000D3800698006807F059FD002800F0CC80B5
:103110000646069805F5106900F1140100F29C407E
:10312000002703910190CDF8089004E0760807F19C
:10313000010700F0B980F007F8D006985FFA87FA27
:103140000068514607F04AFD0446C00726D0049A9D
:1031500007F00F00516B012303FA00F021EA000091
:10316000506309EB4710836006988079012811D1DC
:10317000039907EBC70001EB8000D0E9021211446C
:10318000C1603FB9006928B90698019A0068012119
:1031900007F07CFA06985146FFF720FD200742BF52
:1031A00009EB471008218160E00642BF09EB471098
:1031B00010218160600642BF09EB47104021816009
:1031C000A00716D52846394607F086FC039907EB79
:1031D000C70001EB800010F8031F012905D1002171
:1031E00001700698514600F0ABFA09EB4710022136
:1031F000816020069AD5039907EBC70001EB800890
:10320000D8E90420824291D30699D8F808300C6896
:10321000111A994238BF0B4604EB4711D1F818C96F
:1032200003F1030E1FFA8CF3B3EB9E0F2DD301F5C0
:10323000106900BFD8F81020824224D9101A069ACB
:10324000D8E902B19579584538BF83461FFA8BF308
:10325000204652460095059D07F086FFD8F80C00E1
:10326000D8F814105844C8F80C0001EB0B00C8F84B
:103270001400D9F818100BF1030289B2B1EB920FC8
:10328000D8D2D8F81020DDF8089082423FF64EAF31
:1032900007F00F00D4F83418012202FA00F021EAF6
:1032A0000000C4F8340841E7DDF81890D9F80000B0
:1032B00007F0AEFC002821D4D9F8000007F0A8FCE4
:1032C00000053AD4D9F8000007F0A2FCC00445D5A7
:1032D0000499486820F001004860D9F800001021E6
:1032E00007F0FAFB99F80400010600F0EC80C1B287
:1032F000042900F0030035D200219AE004994868BF
:1033000020F00100486099F8CC04012808D1002081
:1033100089F8CC0448460021FFF7EEFB03E000BF2C
:10332000484600F0A7FBD9F80000416901F00041D0
:10333000416107F06DFC0005C4D504988068C007A2
:1033400002D0484600F0DAFBD9F80000416901F4E8
:103350000061416107F05CFCC004B9D4D9F80000F9
:10336000DDE000BF6FF0600202EA411200234FF679
:103370007F370021EE18C6F80879D6F80059803357
:1033800025F40015C6F80059C6F8087BD6F8005B8E
:103390009A4225F40015C6F8005BD6F8005B01F1EF
:1033A000040145F00065C6F8005BC6F82879D6F838
:1033B000205925F40015C6F82059C6F8287BD6F800
:1033C000205B25F40015C6F8205BD6F8205B45F09D
:1033D0000065C6F8205BC6F84879D6F8405925F450
:1033E0000015C6F84059C6F8487BD6F8405B25F46E
:1033F0000015C6F8405BD6F8405B45F00065C6F89E
:10340000405BC6F86879D6F8605925F40015C6F80F
:103410006059C6F8687BD6F8605B25F40015C6F8DD
:10342000605BD6F8605B45F00065C6F8605B059DA3
:10343000A0D1002847D005F5106202EB41134FF6EA
:103440007F374E019F609559059B25F4001503F5C4
:103450003063955103EB4115AF609D59012825F468
:1034600000159D519D5945F000659D512BD04E1C76
:1034700002EB46147501A760545903EB461624F479
:1034800000145451B7605F59022827F400175F51A8
:103490005F5947F000675F5115D0881C02EB401759
:1034A0004FF67F364101BE60575803EB401027F4BA
:1034B000001757508660585820F40010585058583C
:1034C00040F000605850049F8421F869442240F085
:1034D0000110F86199F80F0000284FF00B0008BFA9
:1034E000142108BF42F22B007B5808BF102218435A
:1034F0007850B85840F00B00B850386809F29C4238
:1035000020F4FE603860D9F8000099F8061007F042
:10351000BDF8D9F80000416901F48051416107F01C
:1035200077FB0146D9F8000089041AD506F0CEFCD5
:10353000D9F8000007F030FBD9F8004089F80700FF
:1035400000F0C8FB99F807200146204607F080FDEF
:10355000484600F079FAD9F80000416901F40051B9
:10356000416107F055FB000706D4D9F8000007F0C9
:103570004FFB00060DD437E0484600F07FFAD9F83B
:103580000000416901F00801416107F041FB0006BC
:103590002AD50599886920F08000886199F804008F
:1035A000022821D309F5157409F11405012640F20A
:1035B0007B2704E00136864207F1240714D219F86C
:1035C00007100129F6D106F00F0000EBC00230060B
:1035D000D9F8000005EB820158BF04EB820107F027
:1035E000EBF999F80400E5E7D9F8000007F010FBC3
:1035F000C0024FD4D9F8000007F00AFB059D8002F5
:1036000040F1808099F80410022929D305F5326031
:10361000013909F51F72012305E000BF203001398F
:1036200002F124021CD007681678012EF6D1B7F1FA
:10363000FF3FF3DCD9F8D46407F4803706F00106C5
:10364000B742EBD102F8013CAF6947F08007AF61A8
:103650006F693F06E2D40499486840F400704860FE
:10366000D9F80000416901F40011416107F0D0FA76
:1036700040004DD54846FFF7ADFAD9F80000416942
:1036800001F08041416107F0C3FA40077FF5DDABEF
:1036900045E000BF99F80400022827D3059909F1F5
:1036A000140401F5126509F13B064FF001080127EA
:1036B00006E000BF01372035874206F1240615D207
:1036C00029687278012AF5D1B1F1FF3FF2DC07F0E9
:1036D0000F0000EBC001D9F8000004EB810186F86F
:1036E000008007F069F999F80400E3E7D9F80000D1
:1036F000416901F48011416107F08AFA059D800259
:103700003FF580AFD9F8000007F082FA4000B1D44D
:10371000D9F8000007F07CFA40077FF596ABD9F89E
:1037200000004468610704D54846FFF76DFAD9F8F0
:10373000000041682143416007B0BDE8F08F000000
:10374000D0F8E00405F072BFD0F8E00405F084BFC3
:10375000002804BF01207047F0B581B00446056819
:1037600090F8950428B9002084F89404204600F0CD
:1037700027F90320B5F1A04F84F8950404BF002079
:10378000A071206806F07AFF94E80F00267C00966E
:1037900006F0ACFB002840F000812068002107F013
:1037A00091FA002840F0F98094F804E0BEF1000F8F
:1037B00000F0EC800EF0030CBEF1040F4FF000029D
:1037C00040D30EF0FC03A4F190000321012500BFBB
:1037D000CE1E80F8A460A0F8BE608E1E80F8C8607F
:1037E000A0F8E2604E1E80F8EC60A0F8066180F858
:1037F0001011A0F82A110E1D013180F8A55080F893
:10380000A820C0E92B22C0F8B42080F8C95080F865
:10381000CC20C0E93422C0F8D82080F8ED5080F8E0
:10382000F020C0E93D22C0F8FC2080F8115180F85A
:103830001421C0E94622C0F8202190309942314637
:10384000C6D1F21EBCF1000F31D004F1140002EB1E
:10385000C20100EB8105012300F821200021BCF109
:10386000010F6B706A832971C5E9021129611ED0AD
:10387000551C05EBC50600EB8607BCF1020F7B70FB
:1038800000F826507D833971C7E9021139610ED0E5
:10389000911C01EBC10200EB8203012500F822100C
:1038A00000205D7059831871C3E902001861BEF1F0
:1038B000000F6BD0BEF1040F4FF0000236D30EF0B4
:1038C000FC000321234600BFCF1E83F854728F1ED5
:1038D00083F878724F1E83F8C0120D1D013183F8F2
:1038E000552283F85822C3E99722C3F8642283F84B
:1038F000792283F87C22C3E9A022C3F8882283F8C6
:103900009D2283F89C7283F8A022C3E9A922C3F800
:10391000AC2283F8C12283F8C422C3E9B222C3F8DF
:10392000D022903381422946CED1EA1EBCF1000F4D
:103930002CD004F5157002EBC20300EB83070021C5
:10394000BCF1010F797000F823203971C7E9021129
:1039500039611BD0531C03EBC30700EB8706BCF196
:10396000020F717000F827303171C6E90211316120
:103970000CD0911C01EBC10200EB820300275F70A9
:1039800000F822101F71C3E902771F6194E80F004D
:10399000277C009706F016FC30B1022084F89504CD
:1039A000012001B0F0BD00BF00206074012084F848
:1039B0009504206806F0F6FB002001B0F0BD000081
:1039C000B0B586B000680024B0F1A04F0594CDE9F1
:1039D00003440294019401D006B0B0BD43F6300513
:1039E0000094C4F20205286801A940F00100286093
:1039F000286800F00100009000984FF4C05001903A
:103A00000220CDE90204032004900A200590002042
:103A1000C4F20200FEF79AFE6868052140F08000BB
:103A2000686000946869002240F4804068616869B9
:103A300000F48040009000984320FFF721F84320D5
:103A4000FFF70CF806B0B0BD10B50446C07928B138
:103A5000022801D0FDF760FD012100E00021D4F82B
:103A6000E00405F07FFED4F8E004BDE8104005F066
:103A70002FBE0000D0F8E00405F05ABED0F8E004F4
:103A800005F060BE90F89424012A04BF022070471C
:103A900010B5012280F8942441740268044610464F
:103AA00007F0C4FA002084F8940410BDD0F8E02494
:103AB00000F29C41104605F06BBE000010B50446B4
:103AC00090F89404012804BF022010BD2068012151
:103AD00084F89414C168490606D5617B012903D195
:103AE000816B41F48031816306F0EEFF206806F0BF
:103AF00049FB002084F8940410BD000010B5044672
:103B0000D0F8E00405F09AFE2068D0F8001E41F0DD
:103B10000101C0F8001EE07A002808BF10BD4EF673
:103B20001050CEF20000016841F00601016010BDA6
:103B3000002804BF012070472DE9F04143F6080832
:103B4000C4F202080446D8F8F8030D4600F00F004E
:103B5000814207D988F8F853D8F8F80300F00F002D
:103B6000A84277D12068810717D5410705D5D8F835
:103B7000001041F4E051C8F80010010705D5D8F84D
:103B8000001041F46041C8F80010D8F80010A26895
:103B900021F0F0011143C8F80010C00740D1D8F857
:103BA000F80300F00F00854207D288F8F853D8F8E0
:103BB000F80300F00F00A8424CD12068410707D558
:103BC000D8F80010E26821F4E0511143C8F8001061
:103BD000000708D5D8F80000216920F4604040EAC9
:103BE000C100C8F8000000F0A3F8D8F800104EF6A5
:103BF000C262C1F30311C0F60002515C40F25002F0
:103C000020FA01F140F20400C2F200000068C2F2A2
:103C100000021160FEF7A6FE0020BDE8F08100BFA3
:103C20006068811E022907D258F8081C89015CBF10
:103C30000120BDE8F08111E0012807D158F8081CE7
:103C400089035CBF0120BDE8F08107E058F8081C3B
:103C5000890703D40120BDE8F08100BFD8F8001027
:103C600021F003010843C8F80000FEF74BFE0646AA
:103C700041F28837D8F80000616800F00C00B0EB22
:103C8000810F8CD0FEF73EFE801BB842F2D9032094
:103C9000BDE8F0810F22026043F60802C4F202027E
:103CA000136803F003034360136803F0F0038360B9
:103CB000136803F4E053C360D2F800C04FF4E0533C
:103CC00003EADC030361D2F8F80300F00F00086098
:103CD0007047000040F25000C2F2000000687047D8
:103CE00040F2500043F60801C2F20000C4F20201A3
:103CF000006809684EF6D262C1F38221C0F6000264
:103D0000515CC8407047000040F2500043F6080183
:103D1000C2F20000C4F20201006809684EF6D262E5
:103D2000C1F34231C0F60002515CC8407047000048
:103D300010B543F60404C4F202046168C1F38101C2
:103D400042F20040C0F2F400DFE801F002040A028F
:103D500010BD00BF41F60030C0F2B70010BD00BF7B
:103D6000206821682368490241F60031C0F2B7019A
:103D700000F03F02C3F388105CBF42F20041C0F282
:103D8000F401A1FB00010023FCF79AFA216802224A
:103D9000C1F3014102EB4101B0FBF1F010BD0000A5
:103DA000002804BF012070472DE9F04182B004468D
:103DB000007843F60006C007C4F202060CD0B068D3
:103DC00000F00C00042840F081803068800303D5A7
:103DD0006068002800F06881207880071BD5B068F3
:103DE00010F00C0F09D0B06800F00C00082840F06B
:103DF00087807068400200F183803068800703D5B7
:103E0000E068012840F050813068216920F0F80016
:103E100040EAC10030602078000713D420784007C2
:103E20002AD4A569002D00F03A81B06800F00C009A
:103E3000082840F0A580012D40F00E81012002B03D
:103E4000BDE8F0816069002800F082800020C4F2A3
:103E500047200121C0F8801EFEF754FD054600BF33
:103E6000706F8007DAD4FEF74DFD401B0228F7D9AA
:103E7000032002B0BDE8F081306C5FEAC0080AD4CC
:103E800000200190306C40F080503064306C00F0C5
:103E900080500190019847F20007C4F2000738688B
:103EA000C00547D4386840F480703860FEF72AFDBA
:103EB000054600BF3868C0053CD4FEF723FD401B13
:103EC0000228F7D9032002B0BDE8F081B06800F005
:103ED0000C00082803D1706840023FF576AF616896
:103EE0003068B1F5803F07D0B1F5A02F40F09A803F
:103EF00040F480203060306840F4803030609AE0D8
:103F0000E068002840F20000C4F247205CD00121A4
:103F10000160FEF7F7FC0546306880073FF574AF97
:103F2000FEF7F0FC401B0228F6D9032002B0BDE8E2
:103F3000F08100BFA168306F012905D0052955D156
:103F400040F004003067306F40F00100306756E009
:103F50000020C4F247200021C0F8801EFEF7D2FCEA
:103F6000054600BF706F80077FF558AFFEF7CAFCAB
:103F7000401B0228F6D9032002B0BDE8F08100BF43
:103F80000027C4F2472700203866FEF7BBFC022D4D
:103F900005460DD13068800140F18A80FEF7B2FC01
:103FA000401B02284FF00300F4D902B0BDE8F081B5
:103FB0003068800173D5FEF7A5FC401B02284FF046
:103FC0000300F5D9F1E700BF00210160FEF79AFC7C
:103FD000054600BF306880077FF51DAFFEF792FCF5
:103FE000401B02284FF00300F4D9DEE720F0010067
:103FF0003067306F002920F0040030677AD0FEF778
:1040000081FC054641F28837306F800700F18480DB
:10401000FEF778FC401BB842F6D9032002B0BDE899
:10402000F08100BF20F4803030603068002920F437
:10403000802030607AD0FEF765FC0546306880034A
:104040003FF5CAAEFEF75EFC401B6428F6D903209C
:1040500002B0BDE8F08100BF7068E16900F4800241
:104060008A4221D1216A00F03F028A421CD147F6E0
:10407000C071626A0140B1EB821F15D1A16A4FF68F
:10408000FF73C903994300F44032A1F580318A429D
:104090000AD1E16A00F07060B0EB016F04D100203A
:1040A00002B0BDE8F08100BF012002B0BDE8F081A0
:1040B00004F11C052FCD084340EA8210D9034FF6C6
:1040C000FF729143A1F5803140EA056008437060BA
:1040D00001203866FEF716FC044600BF30688001F8
:1040E000DDD4FEF70FFC001B02284FF00300F5D9CA
:1040F0005BE700BFFEF706FC054641F2883700BFCC
:10410000306F800708D5FEF7FDFB401BB8424FF02B
:104110000300F5D949E700BFB8F1000F3FF581AEC4
:10412000306C20F0805030647BE600BFFEF7EAFB85
:10413000054600BF306880037FF54EAEFEF7E2FB18
:10414000401B64284FF00300F4D92EE770470000AD
:104150007047000090F83C20012A4FF0020254D032
:1041600010B580F83D200268D2F804E0D2F808C00B
:104170000C682EF07003234341F2FF74C4F2000474
:10418000A24253600EDC40F2FF73C4F200039A4275
:1041900016DCB2F1804F2BD040F20043C4F2000392
:1041A00024E000BF40F2FF33C4F201039A4213DC63
:1041B00041F60003C4F200039A4219D0002313E031
:1041C00040F60003C4F200039A4211D040F60043C7
:1041D000C4F200030AE000BF44F20003C4F201038A
:1041E0009A4205D040F20043C4F201039A4204D13E
:1041F00049682CF08003194391600121002280F866
:104200003D1080F83C20BDE810401046704700008B
:10421000002804BF0120704710B5044690F83D0007
:1042200028B9002084F83C00204600F01FF8022046
:1042300084F83D002068211D04F0AEF8012084F8C8
:10424000460084F83E0084F83F0084F8400084F87B
:10425000410084F8420084F8430084F8440084F864
:10426000450084F83D00002010BD00000068B0F15A
:10427000804F18BF704781B00020009043F6400087
:10428000C4F20200016841F001010160006800F021
:1042900001000090009801B07047000090F83D10B8
:1042A00001291CBF01207047022180F83D100068E1
:1042B00041F2FF72C168C4F20002904241F0010174
:1042C000C1600DDC40F2FF71C4F20001884215DCD0
:1042D000B0F1804F2AD040F20041C4F2000123E047
:1042E00040F2FF31C4F20101884213DC41F60001C3
:1042F000C4F20001884219D0002113E040F6000109
:10430000C4F20001884211D040F60041C4F200011D
:104310000AE000BF44F20001C4F20101884205D066
:1043200040F20041C4F20101884206D1816801F0E7
:104330000701062904BF00207047016841F0010110
:10434000016000207047000090F83C20012A4FF0E7
:1043500002026CD080B580F83D20D0F800C04FF646
:104360007772DCF8083023EA0202CCF808200B68E8
:104370004F2B29DC1F2B45DD202B46D0302B44D082
:10438000402B40F0AF80D1F804E0C968DCF8203061
:10439000DCF8202022F00102CCF82020DCF81820E4
:1043A00022F0F00242EA011123F00A0242EA0E0270
:1043B000CCF81810CCF82020DCF8081041F04701A8
:1043C00021F0300128E000BF6F2B33DDB3F5005F33
:1043D00074D0B3F5805F21D0702B40F08380D1E999
:1043E00001E3C968DCF8082043EA0E0322F47F42A7
:1043F00043EA01211143CCF80810DCF8081041F021
:10440000770109E00BB1102B6CD1DCF8081021F01A
:104410007001194341F00701CCF808100022012176
:1044200080F83D10002180F83C10BDE88040104627
:10443000704700BF502B21D0602B53D1D1F804E03E
:10444000C968DCF82030DCF8202022F01002CCF81B
:104450002020DCF8182022F4704242EA013123F0D7
:10446000A00242EA0E12CCF81810CCF82020DCF89A
:10447000081041F0670121F01001CDE7D1F804E008
:10448000C968DCF82030DCF8202022F00102CCF8EA
:104490002020DCF8182022F0F00242EA011123F07B
:1044A0000A0242EA0E02CCF81810CCF82020DCF800
:1044B000081041F0570121F02001ADE7D1E901E3F7
:1044C000C968DCF8082043EA0E0322F47F4243EA7D
:1044D00001211143CCF80810DCF8081041F48041A8
:1044E0009AE700BF01229AE77047000070B50446C2
:1044F0000068C5680669B10716D515F0020113D02A
:104500006FF002010161012121778069800703D0EA
:104510002046FFF7E9FF05E0204600F08FF820462F
:1045200000F0E6F900202077700719D515F0040097
:1045300016D020686FF004010161022121778069A3
:1045400010F4407F04D02046FFF7CEFF06E000BF06
:10455000204600F073F8204600F0CAF900202077CA
:10456000300717D515F0080014D020686FF0080147
:10457000016104212177C069800703D02046FFF73D
:10458000B3FF05E0204600F059F8204600F0B0F9EE
:1045900000202077F00619D515F0100016D02068FD
:1045A0006FF01001016108212177C06910F4407F8C
:1045B00004D02046FFF798FF06E000BF204600F039
:1045C0003DF8204600F094F900202077F00718BF4E
:1045D00015F0010002D1300609D412E020686FF016
:1045E00001010161204600F00DFA300609D515F0F1
:1045F000800006D020686FF0800101612046FFF73F
:10460000A5FD700609D515F0400006D020686FF0B2
:1046100040010161204600F0FFF9B00658BF70BDAF
:1046200015F0200008D021686FF0200220460A61B2
:10463000BDE87040FFF78CBD70BD00007047000002
:1046400090F83C30012B04BF022070474FEAB202C1
:10465000032A00F2FF802DE9F043DFE802F003B106
:104660003F7F00BF036840F200461C6A1A6A24F0CC
:10467000020422F001021A621A46D3F804C052F86A
:1046800018EF8F6843F48065C4F20106B54244EA2E
:10469000070405D1CF6824F00C0427F004073C433D
:1046A0000F68B54206D1D1E905582CF440762E4367
:1046B00046EA080C2EF073063743C3F804C09F6126
:1046C0004F6809695F631C629F6947F008079F6133
:1046D0009F6927F004079F61B1E000BF036840F2C3
:1046E00000481C6A1A6A24F4007422F480721A6268
:1046F0001A46D3F804C052F81CEF8F6843F4806563
:10470000C4F20108454544EA072408D1CF6840F2C5
:10471000FF463F0224F4406427EA06063443D1F8FA
:104720000090454506D1D1E905562CF440572E435B
:1047300047EA061C2EF0730747EA0907C3F804C0CE
:10474000DF614F680969DF631C62DF6947F00807B2
:10475000DF61DF6927F00407DF6170E0036840F282
:104760000045D3F820C01A6A43F4806722F48052CF
:104770001A621A465C6852F81C8FD1F800E08E6805
:10478000C4F20105AF4204D14D6924F4804444EAE7
:1047900085142CF4005747EA063728F4E64646EA23
:1047A0000E265C60DE614E6809691E641F62DF6967
:1047B00047F40067DF61DF6927F48067DF613DE070
:1047C000036840F200481C6A1A6A24F0200422F0B0
:1047D00010021A621A46D3F804C052F818EF8F6814
:1047E00043F48065C4F20108454544EA071407D143
:1047F000CF686FF0400624F0C00406EA0716344381
:10480000D1F80090454506D1D1E905562CF4406712
:104810002E4347EA860C2EF4E64747EA0927C3F8F9
:1048200004C09F614F6809699F631C629F6947F4D8
:1048300000679F619F6927F480679F610902136881
:10484000194311600021BDE8F043002280F83C20AC
:10485000084670470121002280F83C200846704736
:10486000002804BF0120704710B5044690F83D00B1
:1048700028B9002084F83C00204600F01FF80220F0
:1048800084F83D002068211D03F086FD012084F896
:10489000460084F83E0084F83F0084F8400084F825
:1048A000410084F8420084F8430084F8440084F80E
:1048B000450084F83D00002010BD0000006840F66F
:1048C0000001C4F20001884218BF704781B0002087
:1048D000009043F64000C4F20200016841F0040178
:1048E0000160006800F004000090009801B070477B
:1048F00070470000C1B1042908D0082914BF412223
:104900004022825C012A05D016E000BF3F22825C73
:10491000012A11D10222082910D0042914BF80F8DD
:10492000412080F83F200BE090F83E20012A03D17F
:10493000022280F83E2003E00120704780F84020EA
:10494000006801F01F010122036A02FA01F123EA63
:1049500001020262026A114341F2FF72C4F20002D4
:10496000904201620CDC40F2FF71C4F20001884207
:1049700014DCB0F1804F37D040F2004116E000BFA8
:1049800040F2FF31C4F20101884215DC41F600011A
:10499000C4F20001884227D0002115E040F6000152
:1049A000C4F2000188421FD040F60041C4F2000169
:1049B000884219D01FE000BF44F20001C4F2010197
:1049C000884211D040F20041C4F20101884212D164
:1049D000416C40F2004340F48062C4F2010341F4B0
:1049E00000419A42416406D1816801F0070106291D
:1049F00004BF00207047016841F001010160002000
:104A000070470000006841F20041C4F20001884292
:104A100018BF7047FDF77CBF70470000704700006B
:104A200070470000B0B582B001680A68CC684B6975
:104A300002F02F05202D04F0200505D125B102B08C
:104A4000BDE8B04003F0C8BE5FEA027C1EBF03F0C1
:104A5000010E04F4907313EB0E0341D1036BD506E2
:104A600018D5012B16D114F0100313D00022019297
:104A70000A6801924A680192019A496949064BD431
:104A8000818DC28DC38D002B18BF914240F0F481FF
:104A900002B0B0BD13062DD514F080032AD090F8D3
:104AA0004120212AF4D18268B2F5805F03D10269E6
:104AB000002A00F06782026A531C036212784A607F
:104AC000C28C013A1304C284E2D1C86820F080008D
:104AD000C860C86840F04000C86002B0B0BD00BF08
:104AE000D30718BF14F4807340F0D080530700F14F
:104AF000D380D8E05206CBD514F04002C8D0CA68A3
:104B000022F04002CA60202180F8411002B0BDE8C6
:104B1000B04000F0ABBC00BFC16B0A68526893B2F2
:104B2000002BB5D0858DAB42B2D2C285C969B1F533
:104B3000807F00F0A080016851E8031F026821F423
:104B4000807142E80313DBB1016851E8031F02687A
:104B500021F4807142E8031393B1016851E8031F07
:104B6000026821F4807142E803134BB1016851E8F7
:104B7000031F026821F4807142E80313002BDAD18D
:104B8000016851E8051F026821F0010142E80513A0
:104B9000BBB3016851E8051F026821F0010142E83A
:104BA000051373B3016851E8051F026821F0010184
:104BB00042E805132BB3016851E8051F026821F094
:104BC000010142E80513002BDAD11AE0016851E82F
:104BD000051F026821F0400142E80513DBB10168BE
:104BE00051E8051F026821F0400142E8051393B126
:104BF000016851E8051F026821F0400142E80513F1
:104C00004BB1016851E8051F026821F0400142E8FC
:104C10000513002BDAD1202180F842100021016316
:104C2000016851E8031F026821F0100142E80313F4
:104C3000DBB1016851E8031F026821F0100142E86E
:104C4000031393B1016851E8031F026821F01001BA
:104C500042E803134BB1016851E8031F026821F0D9
:104C6000100142E80313002BDAD1C16B0446084659
:104C7000FDF788FA204602214163818DC28D891A91
:104C800089B202B0BDE8B040FFF7C8BE436C43F044
:104C900001034364530706D5BEF1000F03D0436CF4
:104CA00043F002034364930706D5BEF1000F03D01F
:104CB000436C43F004034364BCF1000F06D55EEA85
:104CC000050303D0436C43F008034364436C002B9B
:104CD0003FF4DEAE920605D525B1044603F07CFD17
:104CE000216820464969426C01F0400102F0080247
:104CF000891800F0B98000BF016851E8031F0268FD
:104D000021F4907142E80313BBB3016851E8031F1B
:104D1000026821F4907142E8031373B3016851E80B
:104D2000031F026821F4907142E803132BB301685A
:104D300051E8031F026821F4907142E80313002B2D
:104D4000DAD11AE0016851E8051F026821F001017B
:104D500042E80513DBB1016851E8051F026821F044
:104D6000010142E8051393B1016851E8051F02688B
:104D700021F0010142E805134BB1016851E8051F1C
:104D8000026821F0010142E80513002BDAD1016B22
:104D9000012924D1016851E8031F026821F01001A4
:104DA00042E80313DBB1016851E8031F026821F0F8
:104DB000100142E8031393B1016851E8031F026830
:104DC00021F0100142E803134BB1016851E8031FC1
:104DD000026821F0100142E80313002BDAD12021F0
:104DE00080F842100021016301684969490640F1D9
:104DF000C380016851E8051F026821F0400142E8C4
:104E00000513DBB1016851E8051F026821F040017C
:104E100042E8051393B1016851E8051F026821F0CB
:104E2000400142E805134BB1016851E8051F0268D3
:104E300021F0400142E80513002BDAD1C16B0029B3
:104E400000F09A8048F29952C0F6000204460846E3
:104E50000A65FDF7DFF900283FF41AAEE06B016D3B
:104E600002B0BDE8B04008470446FFF7D9FD002076
:104E7000606402B0B0BD00BF891A00BF026852E88A
:104E8000032F036822F4907243E80325BDB3026840
:104E900052E8032F036822F4907243E8032575B3A8
:104EA000026852E8032F036822F4907243E8032556
:104EB0002DB3026852E8032F036822F4907243E88E
:104EC0000325002DDAD11AE0026852E8052F0368A5
:104ED00022F0010243E80525DDB1026852E8052F02
:104EE000036822F0010243E8052595B1026852E803
:104EF000052F036822F0010243E805254DB1026841
:104F000052E8052F036822F0010243E80525002D31
:104F1000DAD1202280F8422000220263026852E89F
:104F2000032F036822F0100243E80325DDB1026875
:104F300052E8032F036822F0100243E8032595B1DD
:104F4000026852E8032F036822F0100243E80325A9
:104F50004DB1026852E8032F036822F0100243E8C3
:104F60000325002DDAD1022289B2426302B0BDE8E6
:104F7000B040FFF753BD00BF02B0BDE8B040FFF73F
:104F80004FBD00BF026A32F8023B6FF35F234B60F4
:104F9000026295E5002804BF0120704710B5044661
:104FA00090F8410028B9002084F84000204600F025
:104FB00021F8242084F841002068C16821F40051C0
:104FC000C160204603F088FC2068016921F490410B
:104FD0000161416921F02A014161C16841F4005138
:104FE000C16000202021606484F8411084F84210E0
:104FF000606310BD2DE9F04786B00446006840F6B6
:10500000FF71C4F2010188424FF000010591CDE922
:105010000311CDE901116FDC44F60001C4F2000177
:10502000884200F0E38047F60041C4F20001884264
:1050300040F0B981002643F630000096C4F2020029
:10504000016946F2100841F0004101610169C4F2B2
:10505000020801F00041009100990096016841F0BA
:10506000100101600068022100F01000009000981B
:10507000032001900490082005900020C4F2020053
:10508000CDE9021600F5805001A9FDF75FFB42F261
:10509000580508F19000C2F200054FF020674FF468
:1050A00080694FF48071C5E900072846C5E90266AA
:1050B000C5E90496C5E90661C5E90866FDF79EF9EC
:1050C000002818BFFCF728FAE563AC6342F2B80584
:1050D000C2F20005402005F1080181E8410228469E
:1050E000C5E90087C5E90566C5E907666E62FDF793
:1050F00085F9532672E000BF41F20001C4F20101BC
:10510000884200F0DD8041F20041C4F20101884292
:1051100040F04981002643F630000096C4F20200B8
:10512000416946F2100841F0200141614169C4F231
:10513000020801F02001009100990096016841F0F9
:1051400040010160006801A900F040000090009853
:105150004FF4844001900220CDE902060320049020
:10516000082005900020C4F2020000F5C050FDF7B1
:10517000EDFA42F2382508F58360C2F200054FF0DF
:1051800020674FF480694FF48071C5E90007284615
:10519000C5E90266C5E90496C5E90661C5E9086680
:1051A000FDF72CF9002818BFFCF7B6F9E563AC63EE
:1051B00042F2982508F59260C2F200054021C5E947
:1051C000000705F1080080E842022846C5E90566A7
:1051D000C5E907666E62FDF711F9472600284FF012
:1051E000380718BFFCF798F9D3E000BF002643F654
:1051F00030000096C4F20200016946F2100841F442
:10520000802101610169C4F2020801F4802100914A
:1052100000990096016841F008010160006801A949
:1052200000F00800009000984FF4407001900220B8
:10523000CDE9020603200490072005900020C4F267
:10524000020000F54060FDF781FA42F2D81508F13E
:105250004800C2F200054FF000674021C5E9000791
:1052600005F108004FF4806980E842022846C5E94C
:105270000566C5E907666E62FDF7C0F8002818BF2D
:10528000FCF74AF9A563AC6342F2781508F11800FF
:10529000C2F200054FF48071C5E900072846C5E950
:1052A0000266C5E90496C5E90661C5E90866FDF729
:1052B000A5F8272600284FF03C0768D169E000BF19
:1052C000002743F630000097C4F202004169002530
:1052D00041F0100141614169C4F2020501F0100181
:1052E000009100990097016801AE41F00201016050
:1052F00001684FF0020801F0020100910099009747
:1053000001684FF0030941F00101016000684FF0AE
:10531000070A00F00100009000988020019005F538
:1053200080603146CDE90287CDF81090CDF814A009
:10533000FDF70CFA4FF40070CDE9010803A880E8EE
:10534000800628463146FDF701FA46F21000C4F205
:10535000020042F2181500F58660C2F200054FF017
:10536000006185E883004FF440304FF480624FF4D1
:105370008073C5E908072846C5E90372C5E90577C2
:10538000EB61FDF73BF825264FF03C0708B1FCF731
:10539000C3F8304605210022E551AC63FDF770FBF0
:1053A0003046FDF75BFB06B0BDE8F08770470000B4
:1053B000B0B590F84140202C1CBF0220B0BD134670
:1053C00000294FF0010218BF002B01D11046B0BDDB
:1053D0000022212401628384C384426480F8414016
:1053E000D0F838C048F2217E48F2D175C0F6000EE0
:1053F000C0F600050468CCE90FE548F2A555C0F6F3
:105400000005CCE91352221D04466046FDF7E2F880
:10541000216820466FF040020A6000BF016851E831
:10542000051F026841F0800142E80513DBB1016805
:1054300051E8051F026841F0800142E8051393B16D
:10544000016851E8051F026841F0800142E8051338
:105450004BB1016851E8051F026841F0800142E844
:105460000513002BDAD100221046B0BD70470000B2
:1054700070470000FEE70000014640F23A50C2F2D9
:105480000000C08A0A8810408A7818BF012005D021
:10549000002A02BF01228A70704704E0002A1EBF62
:1054A00000228A70704710467047000040F2F040BA
:1054B000C2F20000012101600221416004218160EB
:1054C0000821C160102101612021416140218161D9
:1054D0008021C1614FF4807101624FF4007141621B
:1054E0004FF4806181624FF40061C1624FF48051DA
:1054F00001634FF4005141634FF4804181634FF4E5
:105500000041C1637047000082B04FF47A7006F02A
:105510009FFB08F029FE06F0BBF8022006F098FB7E
:1055200005F038FF40F2C63642F2300442F2080578
:10553000C2F200060027C2F20004C2F2000500BF5A
:10554000FBF7EEF8FBF756FEB6F9002020460121E6
:1055500000230097019702F07BFE012006F078FB04
:10556000B6F902302846012100220097019702F087
:105570006FFE012006F06CFBE2E7000080B542F20E
:10558000080046F20041C2F20000C4F2000103220A
:10559000002380E80E0000F10C014FF4102C4FF4B2
:1055A000001E81E8085083618383FCF783FC002898
:1055B00008BF80BDBDE88040FBF7AEBF80B542F2BA
:1055C000300046F60001C2F20000C4F200010322DE
:1055D000002380E80E0000F10C014FF4102C4FF472
:1055E000001E81E8085083618383FCF763FC002878
:1055F00008BF80BDBDE88040FBF78EBF80B582B09C
:10560000002043F630010190C4F202010A6842F41E
:1056100000120A600A6802F400120192019A0090D6
:105620000868002240F4800008600868052100F442
:105630008000009000980B20FDF722FA0B20FDF768
:105640000DFA0C2005210022FDF71AFA0C20FDF7B7
:1056500005FA0E2005210022FDF712FA0E20FDF7B3
:10566000FDF9112005210022FDF70AFA1120FDF7AE
:10567000F5F9392005210022FDF702FA3920FDF75E
:10568000EDF93A2005210022FDF7FAF93A20FDF75D
:10569000E5F9452005210022FDF7F2F9452002B089
:1056A000BDE88040FDF7DAB910B540F211704EF652
:1056B000DC62C0F60000C0F60002002106F00AFB22
:1056C00040F2B014C2F20004206047F24D604FF285
:1056D0004802C0F60000C0F60002002106F0FAFA07
:1056E000606045F67D304FF22402C0F60000C0F63F
:1056F0000002002106F0EEFAA06048F2DD404FF211
:105700009002C0F60000C0F60002002106F0E2FAA6
:10571000E06045F209504FF20002C0F60000C0F60A
:105720000002002106F0D6FA20614DF6B9204FF2B2
:10573000D802C0F60000C0F60002002106F0CAFA46
:10574000606147F685604FF26C02C0F60000C0F65B
:105750000002002106F0BEFAA0614DF2C1604FF2D6
:10576000B402C0F60000C0F60002002106F0B2FA52
:10577000E06110BD2DE9F04387B0002643F630000C
:105780000696CDE90466CDE902660196C4F20200F0
:10579000016841F6004441F0100101600168C4F263
:1057A000020401F0100101910199019601680022A3
:1057B00041F040010160016801F04001019101994F
:1057C0000196016841F001010160016801F00101E9
:1057D000019101990196016841F00201016001689F
:1057E00001F00201019101990196016841F008015F
:1057F0000160016801F008010191019901960168B9
:1058000041F480710160016801F480710191019996
:105810000196016841F080010160006840F60401D2
:1058200000F08000019001982046FDF765F802AD78
:105830004FF001084FF44419022704F5806029460F
:10584000CDF80880CDF80C900497FCF77FFF04207A
:10585000CDE9020820462946CDE90466FCF776FF2B
:105860004FF48050CDE90209204629460497FCF701
:105870006DFF4FF40060CDE9020820462946CDE9CE
:105880000476FCF763FF062005210022FDF7F8F8F7
:105890000620FDF7E3F8282005210022FDF7F0F8A7
:1058A0002820FDF7DBF807B0BDE8F08380B586B0AF
:1058B00042F2DC700021C2F200004FF0FF3C059183
:1058C000CDE90311CDE900114FF080425323C0E927
:1058D000021C01618021C0E900238161FEF798FC70
:1058E000002818BFFBF718FE4FF48050029042F2D8
:1058F000DC70C2F2000002A9FEF726FD002818BFE6
:10590000FBF70AFE42F2DC70C2F200006946FEF7C5
:1059100021FC002818BFFBF7FFFD06B080BD00008A
:10592000B0B590B040F6000542F62400C4F2000580
:105930000021C2F20000532244F62063CDE9081191
:10594000CDE90611CDE90411C0E90052C0E9021306
:1059500001618161FEF784FF002818BFFBF7DCFDC1
:1059600042F62400C2F2000008A9FEF7F3FB00286B
:1059700018BFFBF7D1FD602001900020CDE90200A7
:10598000059042F62400C2F2000001A90022FEF7B1
:1059900057FE002818BFFBF7BFFD42F62404C2F2F1
:1059A000000401A920460422FEF74AFE002818BF81
:1059B000FBF7B2FD21680020A9420F90CDE90D0050
:1059C0000C900B9002D010B0B0BD00BF43F6300178
:1059D0000A90C4F202010A6842F008020A600968EB
:1059E00001F008010A910A994FF440510B910221EC
:1059F000CDE90C10CDE90E0105F501300BA9FCF73E
:105A0000A5FE10B0B0BD000080B542F68C1047F680
:105A10000041C2F20000C4F2000100234FF00C0C60
:105A20004FF4E13280E80E00C0E90333C0E905C35A
:105A3000C361FFF7AFFA002808BF80BDBDE8804012
:105A4000FBF76ABD80B542F6B40041F20001C2F234
:105A50000000C4F2010148F2A062C0F2010200237A
:105A600080E80E0000F10C014FF4806C4FF0040E42
:105A700081E80850C0E90633FFF78CFA002808BF18
:105A800080BDBDE88040FBF747BD000080B542F611
:105A9000FC0044F60001C2F20000C4F20001002341
:105AA0004FF00C0C4FF4612280E80E00C0E9033384
:105AB000C0E905C3C361FFF76DFA002808BF80BDC8
:105AC000BDE88040FBF728BD80B542F6441041F2A6
:105AD0000041C2F20000C4F2010100234FF00C0C9F
